{
  "contractName": "count",
  "abi": [
    {
      "inputs": [
        {
          "internalType": "uint256",
          "name": "_num",
          "type": "uint256"
        }
      ],
      "name": "getcount",
      "outputs": [
        {
          "internalType": "uint256",
          "name": "",
          "type": "uint256"
        }
      ],
      "stateMutability": "pure",
      "type": "function",
      "constant": true
    },
    {
      "inputs": [
        {
          "internalType": "uint256",
          "name": "_num",
          "type": "uint256"
        }
      ],
      "name": "incrementcount",
      "outputs": [
        {
          "internalType": "uint256",
          "name": "",
          "type": "uint256"
        }
      ],
      "stateMutability": "pure",
      "type": "function",
      "constant": true
    },
    {
      "inputs": [
        {
          "internalType": "uint256",
          "name": "_num",
          "type": "uint256"
        }
      ],
      "name": "decrementcount",
      "outputs": [
        {
          "internalType": "uint256",
          "name": "",
          "type": "uint256"
        }
      ],
      "stateMutability": "pure",
      "type": "function",
      "constant": true
    },
    {
      "inputs": [
        {
          "internalType": "uint256",
          "name": "_num",
          "type": "uint256"
        }
      ],
      "name": "multcount",
      "outputs": [
        {
          "internalType": "uint256",
          "name": "",
          "type": "uint256"
        }
      ],
      "stateMutability": "pure",
      "type": "function",
      "constant": true
    }
  ],
  "bytecode": "0x608060405234801561001057600080fd5b5061046d806100206000396000f3fe608060405234801561001057600080fd5b506004361061004c5760003560e01c80630591043014610051578063060d5148146100815780637d43684a146100b1578063ba431f89146100e1575b600080fd5b61006b6004803603810190610066919061017f565b610111565b60405161007891906101b7565b60405180910390f35b61009b6004803603810190610096919061017f565b61012a565b6040516100a891906101b7565b60405180910390f35b6100cb60048036038101906100c6919061017f565b610138565b6040516100d891906101b7565b60405180910390f35b6100fb60048036038101906100f6919061017f565b610151565b60405161010891906101b7565b60405180910390f35b60006004826101209190610399565b9150819050919050565b600060019150819050919050565b6000600a8261014791906101d2565b9150819050919050565b6000600282610160919061027b565b9150819050919050565b60008135905061017981610420565b92915050565b60006020828403121561019157600080fd5b600061019f8482850161016a565b91505092915050565b6101b1816103cd565b82525050565b60006020820190506101cc60008301846101a8565b92915050565b60006101dd826103cd565b91506101e8836103cd565b9250827fffffffffffffffffffffffffffffffffffffffffffffffffffffffffffffffff0382111561021d5761021c6103e4565b5b828201905092915050565b6000808291508390505b60018511156102725780860481111561024e5761024d6103e4565b5b600185161561025d5780820291505b808102905061026b85610413565b9450610232565b94509492505050565b6000610286826103cd565b9150610291836103d7565b92506102be7fffffffffffffffffffffffffffffffffffffffffffffffffffffffffffffffff84846102c6565b905092915050565b6000826102d65760019050610392565b816102e45760009050610392565b81600181146102fa576002811461030457610333565b6001915050610392565b60ff841115610316576103156103e4565b5b8360020a91508482111561032d5761032c6103e4565b5b50610392565b5060208310610133831016604e8410600b84101617156103685782820a905083811115610363576103626103e4565b5b610392565b6103758484846001610228565b9250905081840481111561038c5761038b6103e4565b5b81810290505b9392505050565b60006103a4826103cd565b91506103af836103cd565b9250828210156103c2576103c16103e4565b5b828203905092915050565b6000819050919050565b600060ff82169050919050565b7f4e487b7100000000000000000000000000000000000000000000000000000000600052601160045260246000fd5b60008160011c9050919050565b610429816103cd565b811461043457600080fd5b5056fea26469706673582212207413e1860322ec98d3926b5b1681d4a8772308e4684954c257b1335e791b113764736f6c63430008010033",
  "immutableReferences": {},
  "source": "// SPDX-License-Identifier: MIT\r\npragma solidity ^0.8.0;\r\n\r\ncontract count {\r\n\r\n    function getcount(uint _num) pure public  returns(uint) {\r\n        _num = 1;\r\n        return _num;\r\n\r\n    }\r\n\r\n    function incrementcount(uint _num) public pure returns(uint){\r\n        _num = _num +10;\r\n        return _num;\r\n    }\r\n    function decrementcount(uint _num) public pure returns(uint){\r\n        _num = _num -4;\r\n        return _num;\r\n    }\r\n    function multcount(uint _num) public pure returns(uint){\r\n        _num = _num**2;\r\n        return _num;\r\n    }\r\n    \r\n}",
  "sourcePath": "C:\\Users\\HP\\front\\contracts\\count.sol",
  "compiler": {
    "name": "solc",
    "version": "0.8.1+commit.df193b15.Emscripten.clang"
  },
  "schemaVersion": "3.4.7",
  "updatedAt": "2022-06-28T14:03:11.263Z",
  "networkType": "ethereum",
  "devdoc": {
    "kind": "dev",
    "methods": {},
    "version": 1
  },
  "userdoc": {
    "kind": "user",
    "methods": {},
    "version": 1
  }
}